:100000000A128A110C280134FE00030EF1000A08BE
:10001000F2000A128A11C92F0A128A110F280A1235
:100020008A1103200A128A11FA00831320308400F7
:100030003A300A128A11F8250A128A11F90183014D
:100040000A128A11D42B83120313C900103031060F
:10005000031D2B282C2873281930AE000030AF0068
:10006000AC01AD01AA01AB01A801A901B501B40120
:10007000FF30C6004608C9000030BA008630BB0019
:100080008030C6004608BC000A128A15F8240A12FD
:100090008A11023083120313BA008730BB00C030CC
:1000A000C6004608BC000A128A15F8240A128A11F2
:1000B000C83083120313C6004608C4003A300A123F
:1000C0008A159D240A128A11223083120313BA0062
:1000D0008630BB00D030C6004608BC000A128A1524
:1000E000F8240A128A112A308312031349060319CD
:1000F0007A287B28E22823304906031980288128A2
:10010000E228490A031985288628E2280130AA072F
:100110000318AB0A0030AB072B08803AFF00803091
:100120007F02031D952803302A0203189828992876
:10013000AE280A3083120313C6004608F3003508C0
:100140000A128A11E3250A128A118312031349073E
:10015000C7004708B500A801A901E22883120313CC
:100160002B08803AFF0080307F02031DB92803303E
:100170002A02031CBC28BD28E228831203132B0883
:10018000803AFF0080307F02031DC82805302A0214
:100190000318CB28CC28E2280A3083120313C600A8
:1001A0004608F30034080A128A11E3250A128A115C
:1001B000831203134907C7004708B4000130A800A1
:1001C0000030A9002A30831203134906031DE928D1
:1001D000EA2822292B08803AFF0080307F02031D85
:1001E000F32803302A020318F628F728FD28831283
:1001F0000313B501AA01AB012229831203132B08B3
:10020000803AFF0080307F02031D082903302A0254
:10021000031C0B290C292229831203132B08803A73
:10022000FF0080307F02031D172905302A020318C2
:100230001A291B29222983120313B4010230AA00B0
:100240000030AB002330831203134906031D292914
:100250002A2937290A128A1580240A128A110530A0
:1002600083120313C6004608B200071512150130A9
:10027000AE070318AF0A0030AF071A302E062F045E
:10028000031D43294429CA29AE01AF012C082D04BE
:1002900003194B294D2901304E290030C600C701F2
:1002A0004608AC004708AD00C930C6004608C40087
:1002B0000A30F3000030F4003508C700C8014708D1
:1002C000F5004808F6000A128A1592260A128A11C9
:1002D0007308303E0A128A159D240A128A11CA3008
:1002E00083120313C6004608C4000A30BE00003063
:1002F000BF003508C700C8014708C0004808C10052
:100300000A128A15D4250A128A11831203133E0891
:10031000303E0A128A159D240A128A11C6308312B1
:100320000313C6004608C4000A30F3000030F4008E
:100330003408C700C8014708F5004808F6000A124B
:100340008A1592260A128A117308303E0A128A15FB
:100350009D240A128A11C73083120313C60046086F
:10036000C4000A30BE000030BF003408C700C80116
:100370004708C0004808C1000A128A15D4250A128D
:100380008A11831203133E08303E0A128A159D24F7
:100390000A128A11831203132C082D040319D12980
:1003A000D229FC29EF294030BA008630BB00C93081
:1003B000C6004608BC000A128A15F8240A128A11DF
:1003C000FC294030BA008630BB00C630C600460863
:1003D000BC000A128A15F8240A128A11FC2929087D
:1003E000003A0319F429FC292808003A0319D329F3
:1003F000013A0319E129FC29080083120313C900FB
:1004000011303106031D052A062A4A2AFF30C6008C
:100410004608C900B3011930A6000030A700A401A6
:10042000A501A201A3017330BA008630BB00803061
:10043000C6004608BC000A128A15F8240A128A115E
:100440008B3083120313C6004608C400DF300A1243
:100450008A159D240A128A11DA3083120313BA0016
:100460008630BB00C030C6004608BC000A128A15A0
:10047000F8240A128A11223083120313BA0086303C
:10048000BB00D030C6004608BC000A128A15F8240A
:100490000A128A112A308312031349060319512ABA
:1004A000522A832A233049060319572A582A832AB5
:1004B000490A03195C2A5D2A832A0130A20703181E
:1004C000A30A0030A3072308803AFF0080307F0290
:1004D000031D6C2A0430220203186F2A702A3D2B58
:1004E0000A3083120313C6004608F30033080A12C9
:1004F0008A11E3250A128A11831203134907C700E0
:100500004708B3003D2B2A304906031D882A892A53
:100510008D2AB301A201A3013D2B23304906031DFF
:10052000922A932A3D2B0A128A1580240A128A11D4
:100530009F3083120313BA008630BB008030C600A0
:100540004608BC000A128A15F8240A128A11C5301E
:1005500083120313BA008630BB009030C6004608F1
:10056000BC000A128A15F8240A128A11B4308312C8
:100570000313C6004608B5001215262B9A30C60094
:100580004608C4006430F3000030F4003508C700AA
:10059000C8014708F5004808F6000A128A15922695
:1005A0000A128A117308303E0A128A159D240A1213
:1005B0008A119B3083120313C6004608C4000A3018
:1005C000BE000030BF000A30F3000030F4003508F0
:1005D000C700C8014708F5004808F6000A128A1546
:1005E00092260A128A11740883120313C100730839
:1005F000C0000A128A15D4250A128A118312031325
:100600003E08303E0A128A159D240A128A119C3037
:1006100083120313C6004608C4000A30BE0000302F
:10062000BF003508C700C8014708C0004808C1001E
:100630000A128A15D4250A128A11831203133E085E
:10064000303E0A128A159D240A128A11831203135E
:100650003508031D2C2B2D2BBE2A12110A128A15C8
:1006600080240A128A110A3083120313C600460836
:10067000B0001030C6004608B1006430F30000300E
:10068000F400831203133308C600C7014608F500BF
:100690004708F6000A128A1592260A128A11730870
:1006A000303E83120313C8004808B6000A30BE006B
:1006B0000030BF000A30F3000030F4003308C600F9
:1006C000C7014608F5004708F6000A128A15922667
:1006D0000A128A11740883120313C1007308C00040
:1006E0000A128A15D4250A128A11831203133E08AE
:1006F000303EC8004808B7000A30BE000030BF00D6
:100700003308C600C7014608C0004708C1000A12E6
:100710008A15D4250A128A11831203133E08303E2B
:10072000C8004808B800B9010130A6070318A70A95
:100730000030A7071A3026062704031DA02BA12B83
:10074000BE2BA601A701240825040319A82BAA2B58
:100750000130AB2B0030C600C7014608A400470893
:10076000A5003630BA000030BB00C830C6004608CD
:10077000BC000A128A15F8240A128A118312031384
:10078000240825040319C52BC62BD32B3F30BA00F0
:100790008630BB00C830C6004608BC000A128A1565
:1007A000F8240A128A1108000A128A15B2240A12C1
:1007B0008A110A128A1108270A128A110A128A1546
:1007C00080240A128A1183120313B201B20A013083
:1007D0000A128A15D3240A128A1183120313CA003B
:1007E0004A08CD00023032060319F72BF82B092DE9
:1007F000033032060319FD2BFE2B092D043032067F
:10080000031D032C042C062C092D092D4D03031D5B
:100810000A2C0B2C412C053032060319102C112CFC
:10082000412C0230CA004A08B2001030CA004A08FF
:10083000B1000A128A1580240A128A1143308312E9
:100840000313BA008630BB00C030CA004A08BC009F
:100850000A128A15F8240A128A114D3083120313E2
:10086000CC001930CB004F30CA00CA0B352CCB0B53
:10087000352CCC0B352C0A128A1580240A128A11C9
:10088000092D02304D06031D462C472C562C0530F1
:10089000320603194C2C4D2C562C0330CA004A0842
:1008A000B2001030CA004A08B1003B2C03304D069C
:1008B000031D5B2C5C2C692C0430CA004A08B20072
:1008C0000930CA004A08B0001130CA004A08B10015
:1008D0003B2C04304D06031D6E2C6F2CAF2C3203C5
:1008E000031D732C742C872C0A128A1580240A127B
:1008F0008A1183120313B4011E30CA004A08B500DE
:10090000121507150530CA004A08B200092D053036
:100910003206031D8C2C8D2CA22C35081E3ECA00DD
:100920004A08B5003C303502031C972C982C052C46
:100930000130CA004A08B4073508C43ECA004A0854
:10094000B500092D07303206031DA72CA82C052C55
:10095000121507150830CA004A08B200092D0530E3
:100960004D06031DB42CB52CBA2C0730CA004A081A
:10097000B200092D06304D06031DBF2CC02C052CDE
:100980000630CA004A08B2003B2C0A128A15972585
:100990000A128A112D2D4D080A128A1123200A12DB
:1009A0008A112D2D4D080A128A1123200A128A114C
:1009B0002D2D09303006031DDE2CDF2CEE2C4D08CA
:1009C0000A128A11FD210A128A110A3083120313B6
:1009D0003006031DEC2CED2C2D2DE72B0A303006B4
:1009E000031DF32CF42C2D2D4D080A128A112320FF
:1009F0000A128A112D2D0A128A15FB260A128A1153
:100A00002D2D12110711B201B20A2D2D121107114D
:100A10002D2D831203133208CA00CB014B08003A74
:100A20000319132D2D2D4A08013A0319C52C033A39
:100A30000319CB2C013A0319D22C073A0319D92CEC
:100A4000013A0319FB2C033A0319012D013A03194A
:100A5000062D0F3A0319FB2C2D2D0F308312031393
:100A6000CA004A08B100E72B0A128A110C28831227
:100A7000031388110815881408146430F30000303B
:100A8000F400FF30F3070318F40AFF30F407730A89
:100A9000031D4E2D740A031D4E2D4F2D412D831223
:100AA00003130618542D552D572D0130E22D8618AD
:100AB0005A2D5B2D5D2D0230E22D0619602D612D22
:100AC000632D0330E22D8815081188140814643052
:100AD000F3000030F400FF30F3070318F40AFF308E
:100AE000F407730A031D782D740A031D782D792DE0
:100AF0006B2D8312031306187E2D7F2D812D04305C
:100B0000E22D8618842D852D872D0530E22D0619BE
:100B10008A2D8B2D8D2D0630E22D88150815881015
:100B200008146430F3000030F400FF30F3070318BA
:100B3000F40AFF30F407730A031DA22D740A031D83
:100B4000A22DA32D952D831203130618A82DA92DD0
:100B5000AB2D0730E22D8618AE2DAF2DB12D08300C
:100B6000E22D0619B42DB52DB72D0930E22D8815CB
:100B70000815881408106430F3000030F400FF30CA
:100B8000F3070318F40AFF30F407730A031DCC2D92
:100B9000740A031DCC2DCD2DBF2D8312031306180F
:100BA000D22DD32DD52D2A30E22D8618D82DD92D32
:100BB000DB2D0030E22D0619DE2DDF2DE12D233057
:100BC000E22DFF300800F600F501761CE82DE92D36
:100BD000ED2D7308F4007408F5070310F30D0310EE
:100BE000F60C7608031DF52DF62DE52D7508080089
:100BF00064008001840A0406031900340406F92DF8
:100C00005334653474342034543469346D34653469
:100C1000203428344D344D343A3453345334293449
:100C2000003444346F346F347234203453347434A9
:100C300061347434753473343D346F3470346534D6
:100C40006E3400342A343A3443346C3465346134BD
:100C500072342034203423343A3445346E347434BE
:100C6000653472340034203435342E3450346134D9
:100C700075347334653420342034203420342034E7
:100C8000203420340034203450346F3477346534C9
:100C90007234203420343D3420343934303430340C
:100CA000573420340034203434342E3453347434E4
:100CB0006134723474342F3452346534733475347F
:100CC0006D346534003450346C34653461347334BD
:100CD0006534203463346C346F34733465342034B9
:100CE00069347434003453346534743420345434E7
:100CF00065346D3470342E34203428342034433439
:100D0000293400344D344934433452344F34573449
:100D100041345634453420344F34563445344E34FF
:100D200000342034203450346F34773465347234D6
:100D300069346E34673420344F344E3400342034F8
:100D400020345034723465342D3468346534613461
:100D5000743469346E346734003433342E3443349D
:100D60006F346E34763465346334743469346F347C
:100D70006E340034543469346D3465342034553461
:100D800070342034213421340034543469346D34C7
:100D900065342034523465346D342E343D3400349F
:100DA0002034543469346D34653420343D34203477
:100DB000203400342034543465346D34703420349D
:100DC0003A34003432342E344734723469346C345B
:100DD0006C34003431342E344D346934633472341D
:100DE0006F340034203436342E34533474346F343A
:100DF0007034003434342E345334743461347234E7
:100E000074340034543469346D3465342D34003412
:100E100083120313C901C90A4908803EC600460867
:100E2000C400FF300A128A159D240A128A1101306B
:100E300083120313C6004608C9070F304902031C7A
:100E4000222F232F0C2F8030C6004608C400FF300D
:100E50000A128A159D240A128A11C03083120313C4
:100E6000C6004608C400FF300A128A159D240A12E3
:100E70008A11903083120313C6004608C400FF3065
:100E80000A128A159D240A128A11D0308312031384
:100E9000C6004608C400FF300A128A159D240A12B3
:100EA0008A118F3083120313C6004608C400FF3036
:100EB0000A128A159D240A128A11CF308312031355
:100EC000C6004608C400FF300A128A159D240A1283
:100ED0008A119F3083120313C6004608C400FF30F6
:100EE0000A128A159D240A128A11DF308312031315
:100EF000C6004608C400FF300A128A159D240A1253
:100F00008A11913083120313BA008630BB00C130BE
:100F1000C6004608BC000A128A15F8240A128A1173
:100F2000823083120313BA008630BB009130C600B2
:100F30004608BC000A128A15F8240A128A11831284
:100F40000313C901C90A4908D03EC6004608C400B7
:100F5000FF300A128A159D240A128A110130831269
:100F60000313C6004608C9070F304902031CB92FF6
:100F7000BA2FA32F333083120313C800BB30C7002E
:100F8000DF30C600C60BC22FC70BC22FC80BC22F43
:100F90000800831203138C1CCE2FCF2FF92F0130A2
:100FA000A0070318A10A0030A107E2302006043090
:100FB00003192106031DDD2FDE2FF82FA001A1014B
:100FC00035080319E42FE52FE82F0130B502F82F7B
:100FD0003508031DEC2FED2FF82F34080319F12FDE
:100FE000F22FF82F0130B4023B30F0007008B5004A
:100FF0008C1072088A00710E8300FE0E7E0E0900AE
:10100000FF1B0A2883137F1883170008840A03191B
:10101000FF0A08007F087F398A000408840A031940
:04102000FF0A820041
:1018D000831603138801091189100A128A152F260D
:1018E0000A128A1508008312031312149214FA3094
:1018F0008316031392008C14831203131211080031
:10190000F30101300A128A152B250A128A15A63016
:10191000F700F70B892C0000080083160313060854
:10192000073886000808F0398800811383120313F2
:101930008815081588140814080083120313C500BD
:10194000F30144080A128A152B250A128A15F3019D
:10195000F30A8312031345080A128A152B250A126B
:101960008A1508000A128A1568240A128A150A12B2
:101970008A158D240A128A150A128A1573240A12EE
:101980008A150B178B178316031307118312031382
:10199000071183160313871083120313871083160E
:1019A000031386150800F6000A128A1137250A1259
:1019B0008A15F5007508F7007608031DE02CE12C68
:1019C000E32C7708F72C770A0319E72CE82CEF2C87
:1019D0007A080319EC2CED2CEF2CFA01E12C770A94
:1019E000031DF32CF42CF62CFA01FA0AFF30080040
:1019F000F301831203133C080A128A152B250A12DD
:101A00008A151A2DF301F30A3B08FF003A088400F7
:101A10000A128A1500200A128A150A128A152B2525
:101A20000A128A15013083120313BA070318BB0A7E
:101A30000030BB07831203133B08FF003A08840001
:101A40000A128A1500200A128A15003A031D292D50
:101A50002A2D022D0800F60073182F2D332D831226
:101A600003130915362D8312031309117608F03973
:101A700088008914A630F400F40B3C2D000083127A
:101A80000313891076080F39F40003300310F40DA6
:101A9000FF3E031D462D0310740D88008914A630E7
:101AA000F400F40B512D00008312031389101B3036
:101AB000F5009E30F400F40B5B2DF50B5B2D000060
:101AC0000800831203138619662D672D962D1211B7
:101AD000071187140A128A1580240A128A151130F8
:101AE00083120313BA008630BB00C030F8007808B8
:101AF000BC000A128A15F8240A128A156330831270
:101B00000313BA008630BB009030F8007808BC00A0
:101B10000A128A15F8240A128A1583120313861DE5
:101B2000922D932D8D2D8710121507150800EA3080
:101B300083120313BA008630BB008030F7007708A9
:101B4000BC000A128A15F8240A128A15E2308312A0
:101B50000313BA008630BB00C030F7007708BC0022
:101B60000A128A15F8240A128A15AD30831203135B
:101B7000BA008630BB009030F7007708BC000A122C
:101B80008A15F8240A128A15FA3083120313BA0050
:101B90008630BB00D030F7007708BC000A128A15E7
:101BA000F8240A128A15080083120313C301C11F07
:101BB000DA2DDB2DE22DC009C109C00A0319C10AC3
:101BC000C301C30ABF1FE52DE62DEB2DBE09BF09DA
:101BD000BE0A0319BF0A3E083F040319F02DF12D78
:101BE000202EC201C20AFF2D01300310BE0DBF0D11
:101BF000FF3E031DF52D0130F8007808C207BF1F16
:101C0000022E032EF42D3F084102031D092E3E082B
:101C10004002031C0C2E0D2E132E3E08C0023F085E
:101C2000031CC103C10201300310BF0CBE0CFF3EF8
:101C3000031D142E0130C202031D1F2E202E032E61
:101C400043080319242E252E2A2EC009C109C00AD3
:101C50000319C10A4108BF004008BE000800C33094
:101C6000F800CD30F700F70B332EF80B332EF301CD
:101C700033300A128A152B250A128A151B30F800F8
:101C80009E30F700F70B422EF80B422E0000F301B6
:101C900033300A128A152B250A128A15A630F7004E
:101CA000F70B502E0000F30133300A128A152B2552
:101CB0000A128A155B2E5C2E0000F30102300A1214
:101CC0008A152B250A128A15A630F700F70B662E07
:101CD0000000F30128300A128A152B250A128A15F2
:101CE000A630F700F70B722E0000F30101300A1244
:101CF0008A152B250A128A150430F8003D30F700AA
:101D0000F70B802EF80B802E852EF3010C300A1273
:101D10008A152B250A128A15A630F700F70B8E2E8E
:101D20000000080083120313BB01F41F982E992EA4
:101D3000A02EF309F409F30A0319F40ABB01BB0A44
:101D4000F61FA32EA42EAD2EF509F609F50A0319E8
:101D5000F60A0130F7007708BB06BC01BD01730825
:101D600074040319B42EB52EEC2EBA01BA0AC32E90
:101D700001300310F30DF40DFF3E031DB92E0130A9
:101D8000F7007708BA07F41FC62EC72EB82E013009
:101D90000310BC0DBD0DFF3E031DC82E7408760256
:101DA000031DD42E73087502031CD72ED82EDF2EE8
:101DB0007308F5027408031CF603F6023C140130A4
:101DC0000310F40CF30CFF3E031DE02E0130BA02A9
:101DD000031DEB2EEC2EC72E3B080319F02EF12E1F
:101DE000F62EBC09BD09BC0A0319BD0A3D08F40062
:101DF0003C08F30008000A128A1561250A128A15A8
:101E0000D03083120313BA008630BB008030C60086
:101E10004608BC000A128A15F8240A128A1589306D
:101E200083120313C6004608C4000A30F3000030D2
:101E3000F4003408C700C8014708F5004808F60058
:101E40000A128A1592260A128A157308303E0A125F
:101E50008A159D240A128A158A3083120313C6003C
:101E60004608C4000A30BE000030BF003408C70076
:101E7000C8014708C0004808C1000A128A15D425C5
:101E80000A128A15831203133E08303E0A128A157D
:101E90009D240A128A158B3083120313C60046084C
:101EA000C4003A300A128A159D240A128A158C3011
:101EB00083120313C6004608C4000A30F300003042
:101EC000F4003508C700C8014708F5004808F600C7
:101ED0000A128A1592260A128A157308303E0A12CF
:101EE0008A159D240A128A158D3083120313C600A9
:101EF0004608C4000A30BE000030BF003508C700E5
:101F0000C8014708C0004808C1000A128A15D42534
:101F10000A128A15831203133E08303E0A128A15EC
:101F20009D240A128A15533083120313BA00863097
:101F3000BB00C030C6004608BC000A128A15F8244F
:101F40000A128A15333083120313BA008630BB009D
:101F50009030C6004608BC000A128A15F8240A12FE
:101F60008A15F23083120313BA008630BB00D030DA
:101F7000C6004608BC000A128A15F8240A128A15FF
:101F8000831203133508031DC62FC72FFF2F3408F4
:101F9000031DCB2FCC2FFF2F0A128A1580240A1283
:101FA0008A15BA3083120313BA008630BB00C030E2
:101FB000C6004608BC000A128A15F8240A128A15BF
:101FC000831203131211071187144D308312031368
:101FD000C8001930C7004F30C600C60BED2FC70B25
:101FE000ED2FC80BED2F8312031387100A128A15E9
:101FF00080240A128A1583120313B201B20A080060
:02400E00FB3F76
:00000001FF
